{
  "contractName": "Avatheeers",
  "abi": [
    {
      "anonymous": false,
      "inputs": [
        {
          "indexed": true,
          "internalType": "address",
          "name": "owner",
          "type": "address"
        },
        {
          "indexed": true,
          "internalType": "address",
          "name": "approved",
          "type": "address"
        },
        {
          "indexed": true,
          "internalType": "uint256",
          "name": "tokenId",
          "type": "uint256"
        }
      ],
      "name": "Approval",
      "type": "event"
    },
    {
      "anonymous": false,
      "inputs": [
        {
          "indexed": true,
          "internalType": "address",
          "name": "owner",
          "type": "address"
        },
        {
          "indexed": true,
          "internalType": "address",
          "name": "operator",
          "type": "address"
        },
        {
          "indexed": false,
          "internalType": "bool",
          "name": "approved",
          "type": "bool"
        }
      ],
      "name": "ApprovalForAll",
      "type": "event"
    },
    {
      "anonymous": false,
      "inputs": [
        {
          "indexed": true,
          "internalType": "address",
          "name": "from",
          "type": "address"
        },
        {
          "indexed": true,
          "internalType": "address",
          "name": "to",
          "type": "address"
        },
        {
          "indexed": true,
          "internalType": "uint256",
          "name": "tokenId",
          "type": "uint256"
        }
      ],
      "name": "Transfer",
      "type": "event"
    },
    {
      "inputs": [
        {
          "internalType": "uint256",
          "name": "",
          "type": "uint256"
        }
      ],
      "name": "avatheeerToOwner",
      "outputs": [
        {
          "internalType": "address",
          "name": "",
          "type": "address"
        }
      ],
      "stateMutability": "view",
      "type": "function",
      "constant": true
    },
    {
      "inputs": [
        {
          "internalType": "uint256",
          "name": "",
          "type": "uint256"
        }
      ],
      "name": "avatheeers",
      "outputs": [
        {
          "internalType": "string",
          "name": "name",
          "type": "string"
        },
        {
          "internalType": "uint256",
          "name": "dna",
          "type": "uint256"
        }
      ],
      "stateMutability": "view",
      "type": "function",
      "constant": true
    },
    {
      "inputs": [
        {
          "internalType": "uint256",
          "name": "",
          "type": "uint256"
        }
      ],
      "name": "dnaAvatheeerExists",
      "outputs": [
        {
          "internalType": "bool",
          "name": "",
          "type": "bool"
        }
      ],
      "stateMutability": "view",
      "type": "function",
      "constant": true
    },
    {
      "inputs": [
        {
          "internalType": "address",
          "name": "",
          "type": "address"
        }
      ],
      "name": "ownerAvatheeerCount",
      "outputs": [
        {
          "internalType": "uint256",
          "name": "",
          "type": "uint256"
        }
      ],
      "stateMutability": "view",
      "type": "function",
      "constant": true
    },
    {
      "inputs": [
        {
          "internalType": "bytes4",
          "name": "interfaceId",
          "type": "bytes4"
        }
      ],
      "name": "supportsInterface",
      "outputs": [
        {
          "internalType": "bool",
          "name": "",
          "type": "bool"
        }
      ],
      "stateMutability": "view",
      "type": "function",
      "constant": true
    },
    {
      "inputs": [
        {
          "internalType": "string",
          "name": "_name",
          "type": "string"
        }
      ],
      "name": "createRandomAvatheeer",
      "outputs": [],
      "stateMutability": "nonpayable",
      "type": "function"
    },
    {
      "inputs": [
        {
          "internalType": "string",
          "name": "_str",
          "type": "string"
        },
        {
          "internalType": "address",
          "name": "_owner",
          "type": "address"
        }
      ],
      "name": "generateRandomDna",
      "outputs": [
        {
          "internalType": "uint256",
          "name": "",
          "type": "uint256"
        }
      ],
      "stateMutability": "pure",
      "type": "function",
      "constant": true
    },
    {
      "inputs": [
        {
          "internalType": "address",
          "name": "_owner",
          "type": "address"
        }
      ],
      "name": "getAvatheeersByOwner",
      "outputs": [
        {
          "internalType": "uint256[]",
          "name": "",
          "type": "uint256[]"
        }
      ],
      "stateMutability": "view",
      "type": "function",
      "constant": true
    },
    {
      "inputs": [
        {
          "internalType": "address",
          "name": "_owner",
          "type": "address"
        }
      ],
      "name": "balanceOf",
      "outputs": [
        {
          "internalType": "uint256",
          "name": "_balance",
          "type": "uint256"
        }
      ],
      "stateMutability": "view",
      "type": "function",
      "constant": true
    },
    {
      "inputs": [
        {
          "internalType": "uint256",
          "name": "_avatheeerId",
          "type": "uint256"
        }
      ],
      "name": "ownerOf",
      "outputs": [
        {
          "internalType": "address",
          "name": "_owner",
          "type": "address"
        }
      ],
      "stateMutability": "view",
      "type": "function",
      "constant": true
    },
    {
      "inputs": [
        {
          "internalType": "address",
          "name": "_from",
          "type": "address"
        },
        {
          "internalType": "address",
          "name": "_to",
          "type": "address"
        },
        {
          "internalType": "uint256",
          "name": "_avatheeerId",
          "type": "uint256"
        }
      ],
      "name": "transferFrom",
      "outputs": [],
      "stateMutability": "nonpayable",
      "type": "function"
    },
    {
      "inputs": [
        {
          "internalType": "address",
          "name": "_to",
          "type": "address"
        },
        {
          "internalType": "uint256",
          "name": "_avatheeerId",
          "type": "uint256"
        }
      ],
      "name": "approve",
      "outputs": [],
      "stateMutability": "nonpayable",
      "type": "function"
    },
    {
      "inputs": [
        {
          "internalType": "uint256",
          "name": "_avatheeerId",
          "type": "uint256"
        }
      ],
      "name": "getApproved",
      "outputs": [
        {
          "internalType": "address",
          "name": "operator",
          "type": "address"
        }
      ],
      "stateMutability": "view",
      "type": "function",
      "constant": true
    },
    {
      "inputs": [
        {
          "internalType": "address",
          "name": "to",
          "type": "address"
        },
        {
          "internalType": "bool",
          "name": "approved",
          "type": "bool"
        }
      ],
      "name": "setApprovalForAll",
      "outputs": [],
      "stateMutability": "nonpayable",
      "type": "function"
    },
    {
      "inputs": [
        {
          "internalType": "address",
          "name": "owner",
          "type": "address"
        },
        {
          "internalType": "address",
          "name": "operator",
          "type": "address"
        }
      ],
      "name": "isApprovedForAll",
      "outputs": [
        {
          "internalType": "bool",
          "name": "",
          "type": "bool"
        }
      ],
      "stateMutability": "view",
      "type": "function",
      "constant": true
    },
    {
      "inputs": [
        {
          "internalType": "address",
          "name": "from",
          "type": "address"
        },
        {
          "internalType": "address",
          "name": "to",
          "type": "address"
        },
        {
          "internalType": "uint256",
          "name": "avatheeerId",
          "type": "uint256"
        }
      ],
      "name": "safeTransferFrom",
      "outputs": [],
      "stateMutability": "nonpayable",
      "type": "function"
    },
    {
      "inputs": [
        {
          "internalType": "address",
          "name": "from",
          "type": "address"
        },
        {
          "internalType": "address",
          "name": "to",
          "type": "address"
        },
        {
          "internalType": "uint256",
          "name": "avatheeerId",
          "type": "uint256"
        },
        {
          "internalType": "bytes",
          "name": "_data",
          "type": "bytes"
        }
      ],
      "name": "safeTransferFrom",
      "outputs": [],
      "stateMutability": "nonpayable",
      "type": "function"
    },
    {
      "inputs": [
        {
          "internalType": "uint256",
          "name": "_avatheeerId",
          "type": "uint256"
        }
      ],
      "name": "burn",
      "outputs": [],
      "stateMutability": "nonpayable",
      "type": "function"
    },
    {
      "inputs": [
        {
          "internalType": "uint256",
          "name": "_avatheeerId",
          "type": "uint256"
        }
      ],
      "name": "takeOwnership",
      "outputs": [],
      "stateMutability": "nonpayable",
      "type": "function"
    }
  ],
  "bytecode": "0x608060405234801561001057600080fd5b50612b82806100206000396000f3fe608060405234801561001057600080fd5b50600436106101215760003560e01c8063563065ea116100ad578063b2e6ceeb11610071578063b2e6ceeb14610363578063b88d4fde1461037f578063d16ef0911461039b578063e985e9c5146103b7578063f9617252146103e757610121565b8063563065ea146102875780636352211e146102b757806370a08231146102e75780638ae04b3814610317578063a22cb4651461034757610121565b80632f8fe507116100f45780632f8fe507146101be5780633ac053f9146101ef5780634085caef1461021f57806342842e0e1461024f57806342966c681461026b57610121565b806301ffc9a714610126578063081812fc14610156578063095ea7b31461018657806323b872dd146101a2575b600080fd5b610140600480360381019061013b9190611d70565b610417565b60405161014d91906121d3565b60405180910390f35b610170600480360381019061016b9190611e57565b610481565b60405161017d919061214a565b60405180910390f35b6101a0600480360381019061019b9190611d34565b610506565b005b6101bc60048036038101906101b79190611c2e565b610658565b005b6101d860048036038101906101d39190611e57565b6109e9565b6040516101e69291906121ee565b60405180910390f35b61020960048036038101906102049190611e03565b610aa5565b604051610216919061235e565b60405180910390f35b61023960048036038101906102349190611e57565b610b20565b60405161024691906121d3565b60405180910390f35b61026960048036038101906102649190611c2e565b610b40565b005b61028560048036038101906102809190611e57565b610b60565b005b6102a1600480360381019061029c9190611e57565b610d4d565b6040516102ae919061214a565b60405180910390f35b6102d160048036038101906102cc9190611e57565b610d80565b6040516102de919061214a565b60405180910390f35b61030160048036038101906102fc9190611bc9565b610e32565b60405161030e919061235e565b60405180910390f35b610331600480360381019061032c9190611bc9565b610e7b565b60405161033e919061235e565b60405180910390f35b610361600480360381019061035c9190611cf8565b610e93565b005b61037d60048036038101906103789190611e57565b610fff565b005b61039960048036038101906103949190611c7d565b611064565b005b6103b560048036038101906103b09190611dc2565b6110c0565b005b6103d160048036038101906103cc9190611bf2565b6110dc565b6040516103de91906121d3565b60405180910390f35b61040160048036038101906103fc9190611bc9565b611170565b60405161040e91906121b1565b60405180910390f35b60007f01ffc9a7000000000000000000000000000000000000000000000000000000007bffffffffffffffffffffffffffffffffffffffffffffffffffffffff1916827bffffffffffffffffffffffffffffffffffffffffffffffffffffffff1916149050919050565b600061048c8261130f565b6104cb576040517f08c379a00000000000000000000000000000000000000000000000000000000081526004016104c29061231e565b60405180910390fd5b6004600083815260200190815260200160002060009054906101000a900473ffffffffffffffffffffffffffffffffffffffff169050919050565b6001600082815260200190815260200160002060009054906101000a900473ffffffffffffffffffffffffffffffffffffffff1673ffffffffffffffffffffffffffffffffffffffff163373ffffffffffffffffffffffffffffffffffffffff16146105a7576040517f08c379a000000000000000000000000000000000000000000000000000000000815260040161059e9061225e565b60405180910390fd5b816004600083815260200190815260200160002060006101000a81548173ffffffffffffffffffffffffffffffffffffffff021916908373ffffffffffffffffffffffffffffffffffffffff160217905550808273ffffffffffffffffffffffffffffffffffffffff163373ffffffffffffffffffffffffffffffffffffffff167f8c5be1e5ebec7d5bd14f71427d1e84f3dd0314c0f7b2291e5b200ac8c7c3b92560405160405180910390a45050565b600073ffffffffffffffffffffffffffffffffffffffff168373ffffffffffffffffffffffffffffffffffffffff16141580156106c25750600073ffffffffffffffffffffffffffffffffffffffff168273ffffffffffffffffffffffffffffffffffffffff1614155b610701576040517f08c379a00000000000000000000000000000000000000000000000000000000081526004016106f89061227e565b60405180910390fd5b61070a8161130f565b610749576040517f08c379a00000000000000000000000000000000000000000000000000000000081526004016107409061231e565b60405180910390fd5b8173ffffffffffffffffffffffffffffffffffffffff168373ffffffffffffffffffffffffffffffffffffffff1614156107b8576040517f08c379a00000000000000000000000000000000000000000000000000000000081526004016107af906122de565b60405180910390fd5b6107c23382611381565b610801576040517f08c379a00000000000000000000000000000000000000000000000000000000081526004016107f89061229e565b60405180910390fd5b6108546001600260008573ffffffffffffffffffffffffffffffffffffffff1673ffffffffffffffffffffffffffffffffffffffff1681526020019081526020016000205461144190919063ffffffff16565b600260008473ffffffffffffffffffffffffffffffffffffffff1673ffffffffffffffffffffffffffffffffffffffff168152602001908152602001600020819055506108ea6001600260008673ffffffffffffffffffffffffffffffffffffffff1673ffffffffffffffffffffffffffffffffffffffff1681526020019081526020016000205461145790919063ffffffff16565b600260008573ffffffffffffffffffffffffffffffffffffffff1673ffffffffffffffffffffffffffffffffffffffff16815260200190815260200160002081905550816001600083815260200190815260200160002060006101000a81548173ffffffffffffffffffffffffffffffffffffffff021916908373ffffffffffffffffffffffffffffffffffffffff160217905550808273ffffffffffffffffffffffffffffffffffffffff168473ffffffffffffffffffffffffffffffffffffffff167fddf252ad1be2c89b69c2b068fc378daa952ba7f163c4a11628f55a4df523b3ef60405160405180910390a46109e4828261146d565b505050565b600081815481106109f957600080fd5b9060005260206000209060020201600091509050806000018054610a1c9061272d565b80601f0160208091040260200160405190810160405280929190818152602001828054610a489061272d565b8015610a955780601f10610a6a57610100808354040283529160200191610a95565b820191906000526020600020905b815481529060010190602001808311610a7857829003601f168201915b5050505050908060010154905082565b6000808273ffffffffffffffffffffffffffffffffffffffff1684604051602001610ad09190612133565b6040516020818303038152906040528051906020012060001c610af3919061247c565b9050610b14601a80610b059190612525565b8261161590919063ffffffff16565b90508091505092915050565b60036020528060005260406000206000915054906101000a900460ff1681565b610b5b83838360405180602001604052806000815250611064565b505050565b600073ffffffffffffffffffffffffffffffffffffffff163373ffffffffffffffffffffffffffffffffffffffff161415610bd0576040517f08c379a0000000000000000000000000000000000000000000000000000000008152600401610bc79061227e565b60405180910390fd5b610bd98161130f565b610c18576040517f08c379a0000000000000000000000000000000000000000000000000000000008152600401610c0f9061231e565b60405180910390fd5b610c223382611381565b610c61576040517f08c379a0000000000000000000000000000000000000000000000000000000008152600401610c589061229e565b60405180910390fd5b610cb46001600260003373ffffffffffffffffffffffffffffffffffffffff1673ffffffffffffffffffffffffffffffffffffffff1681526020019081526020016000205461145790919063ffffffff16565b600260003373ffffffffffffffffffffffffffffffffffffffff1673ffffffffffffffffffffffffffffffffffffffff1681526020019081526020016000208190555060006001600083815260200190815260200160002060006101000a81548173ffffffffffffffffffffffffffffffffffffffff021916908373ffffffffffffffffffffffffffffffffffffffff16021790555050565b60016020528060005260406000206000915054906101000a900473ffffffffffffffffffffffffffffffffffffffff1681565b6000806001600084815260200190815260200160002060009054906101000a900473ffffffffffffffffffffffffffffffffffffffff169050600073ffffffffffffffffffffffffffffffffffffffff168173ffffffffffffffffffffffffffffffffffffffff161415610e29576040517f08c379a0000000000000000000000000000000000000000000000000000000008152600401610e209061233e565b60405180910390fd5b80915050919050565b6000600260008373ffffffffffffffffffffffffffffffffffffffff1673ffffffffffffffffffffffffffffffffffffffff168152602001908152602001600020549050919050565b60026020528060005260406000206000915090505481565b3373ffffffffffffffffffffffffffffffffffffffff168273ffffffffffffffffffffffffffffffffffffffff161415610f02576040517f08c379a0000000000000000000000000000000000000000000000000000000008152600401610ef99061223e565b60405180910390fd5b80600560003373ffffffffffffffffffffffffffffffffffffffff1673ffffffffffffffffffffffffffffffffffffffff16815260200190815260200160002060008473ffffffffffffffffffffffffffffffffffffffff1673ffffffffffffffffffffffffffffffffffffffff16815260200190815260200160002060006101000a81548160ff0219169083151502179055508173ffffffffffffffffffffffffffffffffffffffff163373ffffffffffffffffffffffffffffffffffffffff167f17307eab39ab6107e8899845ad3d59bd9653f200f220920489ca2b5937696c3183604051610ff391906121d3565b60405180910390a35050565b6110093382611381565b611048576040517f08c379a000000000000000000000000000000000000000000000000000000000815260040161103f9061229e565b60405180910390fd5b600061105382610d80565b9050611060813384610658565b5050565b61106f848484610658565b61107b8484848461162b565b6110ba576040517f08c379a00000000000000000000000000000000000000000000000000000000081526004016110b19061221e565b60405180910390fd5b50505050565b60006110cc8233610aa5565b90506110d88282611742565b5050565b6000600560008473ffffffffffffffffffffffffffffffffffffffff1673ffffffffffffffffffffffffffffffffffffffff16815260200190815260200160002060008373ffffffffffffffffffffffffffffffffffffffff1673ffffffffffffffffffffffffffffffffffffffff16815260200190815260200160002060009054906101000a900460ff16905092915050565b60606000600260008473ffffffffffffffffffffffffffffffffffffffff1673ffffffffffffffffffffffffffffffffffffffff1681526020019081526020016000205467ffffffffffffffff8111156111f3577f4e487b7100000000000000000000000000000000000000000000000000000000600052604160045260246000fd5b6040519080825280602002602001820160405280156112215781602001602082028036833780820191505090505b5090506000805b600080549050811015611304578473ffffffffffffffffffffffffffffffffffffffff166001600083815260200190815260200160002060009054906101000a900473ffffffffffffffffffffffffffffffffffffffff1673ffffffffffffffffffffffffffffffffffffffff1614156112f157808383815181106112d6577f4e487b7100000000000000000000000000000000000000000000000000000000600052603260045260246000fd5b60200260200101818152505081806112ed90612790565b9250505b80806112fc90612790565b915050611228565b508192505050919050565b6000806001600084815260200190815260200160002060009054906101000a900473ffffffffffffffffffffffffffffffffffffffff169050600073ffffffffffffffffffffffffffffffffffffffff168173ffffffffffffffffffffffffffffffffffffffff161415915050919050565b6000806001600084815260200190815260200160002060009054906101000a900473ffffffffffffffffffffffffffffffffffffffff1690508073ffffffffffffffffffffffffffffffffffffffff168473ffffffffffffffffffffffffffffffffffffffff16148061142757508373ffffffffffffffffffffffffffffffffffffffff1661140f84610481565b73ffffffffffffffffffffffffffffffffffffffff16145b80611438575061143781856110dc565b5b91505092915050565b6000818361144f919061247c565b905092915050565b600081836114659190612643565b905092915050565b8173ffffffffffffffffffffffffffffffffffffffff166001600083815260200190815260200160002060009054906101000a900473ffffffffffffffffffffffffffffffffffffffff1673ffffffffffffffffffffffffffffffffffffffff161461150e576040517f08c379a0000000000000000000000000000000000000000000000000000000008152600401611505906122be565b60405180910390fd5b6115178161130f565b611556576040517f08c379a000000000000000000000000000000000000000000000000000000000815260040161154d9061231e565b60405180910390fd5b600073ffffffffffffffffffffffffffffffffffffffff166004600083815260200190815260200160002060009054906101000a900473ffffffffffffffffffffffffffffffffffffffff1673ffffffffffffffffffffffffffffffffffffffff16146116115760006004600083815260200190815260200160002060006101000a81548173ffffffffffffffffffffffffffffffffffffffff021916908373ffffffffffffffffffffffffffffffffffffffff1602179055505b5050565b6000818361162391906127d9565b905092915050565b600061164c8473ffffffffffffffffffffffffffffffffffffffff166119da565b611659576001905061173a565b60008473ffffffffffffffffffffffffffffffffffffffff1663150b7a02338887876040518563ffffffff1660e01b815260040161169a9493929190612165565b602060405180830381600087803b1580156116b457600080fd5b505af11580156116c8573d6000803e3d6000fd5b505050506040513d601f19601f820116820180604052508101906116ec9190611d99565b905063150b7a0260e01b7bffffffffffffffffffffffffffffffffffffffffffffffffffffffff1916817bffffffffffffffffffffffffffffffffffffffffffffffffffffffff1916149150505b949350505050565b806003600082815260200190815260200160002060009054906101000a900460ff16156117a4576040517f08c379a000000000000000000000000000000000000000000000000000000000815260040161179b906122fe565b60405180910390fd5b6000604051806040016040528085815260200184815250908060018154018082558091505060019003906000526020600020906002020160009091909190915060008201518160000190805190602001906118009291906119ed565b506020820151816001015550506000611828600160008054905061145790919063ffffffff16565b905060016003600085815260200190815260200160002060006101000a81548160ff021916908315150217905550600073ffffffffffffffffffffffffffffffffffffffff166001600083815260200190815260200160002060009054906101000a900473ffffffffffffffffffffffffffffffffffffffff1673ffffffffffffffffffffffffffffffffffffffff16146118ec577f4e487b7100000000000000000000000000000000000000000000000000000000600052600160045260246000fd5b336001600083815260200190815260200160002060006101000a81548173ffffffffffffffffffffffffffffffffffffffff021916908373ffffffffffffffffffffffffffffffffffffffff1602179055506119916001600260003373ffffffffffffffffffffffffffffffffffffffff1673ffffffffffffffffffffffffffffffffffffffff1681526020019081526020016000205461144190919063ffffffff16565b600260003373ffffffffffffffffffffffffffffffffffffffff1673ffffffffffffffffffffffffffffffffffffffff1681526020019081526020016000208190555050505050565b600080823b905060008111915050919050565b8280546119f99061272d565b90600052602060002090601f016020900481019282611a1b5760008555611a62565b82601f10611a3457805160ff1916838001178555611a62565b82800160010185558215611a62579182015b82811115611a61578251825591602001919060010190611a46565b5b509050611a6f9190611a73565b5090565b5b80821115611a8c576000816000905550600101611a74565b5090565b6000611aa3611a9e8461239e565b612379565b905082815260208101848484011115611abb57600080fd5b611ac68482856126eb565b509392505050565b6000611ae1611adc846123cf565b612379565b905082815260208101848484011115611af957600080fd5b611b048482856126eb565b509392505050565b600081359050611b1b81612af0565b92915050565b600081359050611b3081612b07565b92915050565b600081359050611b4581612b1e565b92915050565b600081519050611b5a81612b1e565b92915050565b600082601f830112611b7157600080fd5b8135611b81848260208601611a90565b91505092915050565b600082601f830112611b9b57600080fd5b8135611bab848260208601611ace565b91505092915050565b600081359050611bc381612b35565b92915050565b600060208284031215611bdb57600080fd5b6000611be984828501611b0c565b91505092915050565b60008060408385031215611c0557600080fd5b6000611c1385828601611b0c565b9250506020611c2485828601611b0c565b9150509250929050565b600080600060608486031215611c4357600080fd5b6000611c5186828701611b0c565b9350506020611c6286828701611b0c565b9250506040611c7386828701611bb4565b9150509250925092565b60008060008060808587031215611c9357600080fd5b6000611ca187828801611b0c565b9450506020611cb287828801611b0c565b9350506040611cc387828801611bb4565b925050606085013567ffffffffffffffff811115611ce057600080fd5b611cec87828801611b60565b91505092959194509250565b60008060408385031215611d0b57600080fd5b6000611d1985828601611b0c565b9250506020611d2a85828601611b21565b9150509250929050565b60008060408385031215611d4757600080fd5b6000611d5585828601611b0c565b9250506020611d6685828601611bb4565b9150509250929050565b600060208284031215611d8257600080fd5b6000611d9084828501611b36565b91505092915050565b600060208284031215611dab57600080fd5b6000611db984828501611b4b565b91505092915050565b600060208284031215611dd457600080fd5b600082013567ffffffffffffffff811115611dee57600080fd5b611dfa84828501611b8a565b91505092915050565b60008060408385031215611e1657600080fd5b600083013567ffffffffffffffff811115611e3057600080fd5b611e3c85828601611b8a565b9250506020611e4d85828601611b0c565b9150509250929050565b600060208284031215611e6957600080fd5b6000611e7784828501611bb4565b91505092915050565b6000611e8c8383612115565b60208301905092915050565b611ea181612677565b82525050565b6000611eb282612410565b611ebc818561243e565b9350611ec783612400565b8060005b83811015611ef8578151611edf8882611e80565b9750611eea83612431565b925050600181019050611ecb565b5085935050505092915050565b611f0e81612689565b82525050565b6000611f1f8261241b565b611f29818561244f565b9350611f398185602086016126fa565b611f42816128c6565b840191505092915050565b6000611f5882612426565b611f628185612460565b9350611f728185602086016126fa565b611f7b816128c6565b840191505092915050565b6000611f9182612426565b611f9b8185612471565b9350611fab8185602086016126fa565b80840191505092915050565b6000611fc4602183612460565b9150611fcf826128e4565b604082019050919050565b6000611fe7601a83612460565b9150611ff282612933565b602082019050919050565b600061200a601c83612460565b91506120158261295c565b602082019050919050565b600061202d601083612460565b915061203882612985565b602082019050919050565b6000612050601883612460565b915061205b826129ae565b602082019050919050565b6000612073601883612460565b915061207e826129d7565b602082019050919050565b6000612096602483612460565b91506120a182612a00565b604082019050919050565b60006120b9602783612460565b91506120c482612a4f565b604082019050919050565b60006120dc601983612460565b91506120e782612a9e565b602082019050919050565b60006120ff601583612460565b915061210a82612ac7565b602082019050919050565b61211e816126e1565b82525050565b61212d816126e1565b82525050565b600061213f8284611f86565b915081905092915050565b600060208201905061215f6000830184611e98565b92915050565b600060808201905061217a6000830187611e98565b6121876020830186611e98565b6121946040830185612124565b81810360608301526121a68184611f14565b905095945050505050565b600060208201905081810360008301526121cb8184611ea7565b905092915050565b60006020820190506121e86000830184611f05565b92915050565b600060408201905081810360008301526122088185611f4d565b90506122176020830184612124565b9392505050565b6000602082019050818103600083015261223781611fb7565b9050919050565b6000602082019050818103600083015261225781611fda565b9050919050565b6000602082019050818103600083015261227781611ffd565b9050919050565b6000602082019050818103600083015261229781612020565b9050919050565b600060208201905081810360008301526122b781612043565b9050919050565b600060208201905081810360008301526122d781612066565b9050919050565b600060208201905081810360008301526122f781612089565b9050919050565b60006020820190508181036000830152612317816120ac565b9050919050565b60006020820190508181036000830152612337816120cf565b9050919050565b60006020820190508181036000830152612357816120f2565b9050919050565b60006020820190506123736000830184612124565b92915050565b6000612383612394565b905061238f828261275f565b919050565b6000604051905090565b600067ffffffffffffffff8211156123b9576123b8612897565b5b6123c2826128c6565b9050602081019050919050565b600067ffffffffffffffff8211156123ea576123e9612897565b5b6123f3826128c6565b9050602081019050919050565b6000819050602082019050919050565b600081519050919050565b600081519050919050565b600081519050919050565b6000602082019050919050565b600082825260208201905092915050565b600082825260208201905092915050565b600082825260208201905092915050565b600081905092915050565b6000612487826126e1565b9150612492836126e1565b9250827fffffffffffffffffffffffffffffffffffffffffffffffffffffffffffffffff038211156124c7576124c661280a565b5b828201905092915050565b6000808291508390505b600185111561251c578086048111156124f8576124f761280a565b5b60018516156125075780820291505b8081029050612515856128d7565b94506124dc565b94509492505050565b6000612530826126e1565b915061253b836126e1565b92506125687fffffffffffffffffffffffffffffffffffffffffffffffffffffffffffffffff8484612570565b905092915050565b600082612580576001905061263c565b8161258e576000905061263c565b81600181146125a457600281146125ae576125dd565b600191505061263c565b60ff8411156125c0576125bf61280a565b5b8360020a9150848211156125d7576125d661280a565b5b5061263c565b5060208310610133831016604e8410600b84101617156126125782820a90508381111561260d5761260c61280a565b5b61263c565b61261f84848460016124d2565b925090508184048111156126365761263561280a565b5b81810290505b9392505050565b600061264e826126e1565b9150612659836126e1565b92508282101561266c5761266b61280a565b5b828203905092915050565b6000612682826126c1565b9050919050565b60008115159050919050565b60007fffffffff0000000000000000000000000000000000000000000000000000000082169050919050565b600073ffffffffffffffffffffffffffffffffffffffff82169050919050565b6000819050919050565b82818337600083830152505050565b60005b838110156127185780820151818401526020810190506126fd565b83811115612727576000848401525b50505050565b6000600282049050600182168061274557607f821691505b6020821081141561275957612758612868565b5b50919050565b612768826128c6565b810181811067ffffffffffffffff8211171561278757612786612897565b5b80604052505050565b600061279b826126e1565b91507fffffffffffffffffffffffffffffffffffffffffffffffffffffffffffffffff8214156127ce576127cd61280a565b5b600182019050919050565b60006127e4826126e1565b91506127ef836126e1565b9250826127ff576127fe612839565b5b828206905092915050565b7f4e487b7100000000000000000000000000000000000000000000000000000000600052601160045260246000fd5b7f4e487b7100000000000000000000000000000000000000000000000000000000600052601260045260246000fd5b7f4e487b7100000000000000000000000000000000000000000000000000000000600052602260045260246000fd5b7f4e487b7100000000000000000000000000000000000000000000000000000000600052604160045260246000fd5b6000601f19601f8301169050919050565b60008160011c9050919050565b7f4d75737420696d706c6d656d656e74206f6e455243373231526563656976656460008201527f2e00000000000000000000000000000000000000000000000000000000000000602082015250565b7f43616e6e6f7420617070726f7665206f776e2061646472657373000000000000600082015250565b7f4d7573742062652074686520417661746865656572206f776e65722e00000000600082015250565b7f496e76616c696420616464726573732e00000000000000000000000000000000600082015250565b7f41646472657373206973206e6f7420617070726f7665642e0000000000000000600082015250565b7f4d75737420626520617661746865656572206f776e65722e0000000000000000600082015250565b7f43616e6e6f74207472616e7366657220746f207468652073616d65206164647260008201527f6573732e00000000000000000000000000000000000000000000000000000000602082015250565b7f4176617468656565722077697468207375636820646e6120616c72656164792060008201527f6578697374732e00000000000000000000000000000000000000000000000000602082015250565b7f41766174686565657220646f6573206e6f742065786973742e00000000000000600082015250565b7f496e76616c6964204176617468656565722049442e0000000000000000000000600082015250565b612af981612677565b8114612b0457600080fd5b50565b612b1081612689565b8114612b1b57600080fd5b50565b612b2781612695565b8114612b3257600080fd5b50565b612b3e816126e1565b8114612b4957600080fd5b5056fea2646970667358221220d84f4a52721eeaef33e21392533f262dc32ee69e19541519073666d0ae7b586364736f6c63430008030033",
  "immutableReferences": {},
  "source": "// SPDX-License-Identifier: MIT\npragma solidity ^0.8.3;\n\n// Imports symbols from other files into the current contract.\n// In this case, a series of helper contracts from OpenZeppelin.\n// Learn more: https://docs.soliditylang.org/en/v0.8.3/layout-of-source-files.html#importing-other-source-files\n\n// IERC721 is the ERC721 interface that we'll use to make Avatheeer ERC721 compliant\n// More about ERC721: https://eips.ethereum.org/EIPS/eip-721\nimport \"@openzeppelin/contracts/token/ERC721/IERC721.sol\";\n// IERC721Receiver must be implemented to accept safe transfers.\n// It is included on the ERC721 standard\nimport \"@openzeppelin/contracts/token/ERC721/IERC721Receiver.sol\";\n// ERC165 is used to declare interface support for IERC721\n// More about ERC165: https://eips.ethereum.org/EIPS/eip-165\nimport \"@openzeppelin/contracts/utils/introspection/ERC165.sol\";\n// SafeMath will be used for every math operation\nimport \"@openzeppelin/contracts/utils/math/SafeMath.sol\";\n// Address will provide functions such as .isContract verification\nimport \"@openzeppelin/contracts/utils/Address.sol\";\n\n// The `is` keyword is used to inherit functions and keywords from external contracts.\n// In this case, `Avatheeer` inherits from the `IERC721` and `ERC165` contracts.\n// Learn more: https://solidity.readthedocs.io/en/v0.8.3/contracts.html#inheritance\ncontract Avatheeers is IERC721, ERC165 {\n    // Uses OpenZeppelin's SafeMath library to perform arithmetic operations safely.\n    // Learn more: https://docs.openzeppelin.com/contracts/3.x/api/math#SafeMath\n    using SafeMath for uint256;\n    // Use OpenZeppelin's Address library to validate whether an address is\n    // is a contract or not.\n    // Learn more: https://docs.openzeppelin.com/contracts/3.x/api/utils#Address\n    using Address for address;\n\n    // Constant state variables in Solidity are similar to other languages\n    // but you must assign from an expression which is constant at compile time.\n    // Learn more: https://solidity.readthedocs.io/en/v0.8.3/contracts.html#constant-state-variables\n    uint256 constant dnaDigits = 26;\n    uint256 constant dnaModulus = 26**dnaDigits;\n\n    // ERC165 identifier for the ERC721 interface got from\n    // bytes4(keccak256(\"onERC721Received(address,address,uint256,bytes)\"))\n    bytes4 private constant _ERC721_RECEIVED = 0x150b7a02;\n\n    // Struct types let you define your own type\n    // Learn more: https://docs.soliditylang.org/en/v0.8.3/types.html#structs\n    struct Avatheeer {\n        string name;\n        uint256 dna;\n    }\n\n    // Creates an empty array of Avatheeer structs\n    Avatheeer[] public avatheeers;\n\n    // Mapping from id of Avatheeer to its owner's address\n    mapping(uint256 => address) public avatheeerToOwner;\n\n    // Mapping from owner's address to number of owned token\n    mapping(address => uint256) public ownerAvatheeerCount;\n\n    // Mapping to validate that dna is not already taken\n    mapping(uint256 => bool) public dnaAvatheeerExists;\n\n    // Mapping from token ID to approved address\n    mapping(uint256 => address) avatheeerApprovals;\n\n    // You can nest mappings, this example maps owner to operator approvals\n    mapping(address => mapping(address => bool)) private operatorApprovals;\n\n    // Check if Avatheeer is unique and doesn't exist yet\n    modifier isUnique(uint256 _dna) {\n        require(\n            !dnaAvatheeerExists[_dna],\n            \"Avatheeer with such dna already exists.\"\n        );\n        _;\n    }\n\n    // Creates a random Avatheeer from string (name)\n    function createRandomAvatheeer(string memory _name) public {\n        uint256 randDna = generateRandomDna(_name, msg.sender);\n        _createAvatheeer(_name, randDna);\n    }\n\n    // Generates random DNA from string (name) and address of the owner (creator)\n    function generateRandomDna(string memory _str, address _owner)\n        public\n        pure\n        returns (\n            // Functions marked as `pure` promise not to read from or modify the state\n            // Learn more: https://solidity.readthedocs.io/en/v0.8.3/contracts.html#pure-functions\n            uint256\n        )\n    {\n        // Generates random uint from string (name) + address (owner)\n        uint256 rand = uint256(keccak256(abi.encodePacked(_str))) + uint256(uint160(address(_owner)));\n        rand = rand.mod(dnaModulus);\n        return rand;\n    }\n\n    // Internal function to create a random Avatheeer from string (name) and DNA\n    function _createAvatheeer(string memory _name, uint256 _dna)\n        internal\n        // The `internal` keyword means this function is only visible\n        // within this contract and contracts that derive this contract\n        // Learn more: https://solidity.readthedocs.io/en/v0.8.3/contracts.html#visibility-and-getters\n        // `isUnique` is a function modifier that checks if the avatheeer already exists\n        // Learn more: https://solidity.readthedocs.io/en/v0.8.3/structure-of-a-contract.html#function-modifiers\n        isUnique(_dna)\n    {\n        // Adds Avatheeer to array of Avatheeers and get id\n        avatheeers.push(Avatheeer(_name, _dna));\n        uint256 id = avatheeers.length.sub(1);\n\n        // Mark as existent avatheeer name and dna\n        dnaAvatheeerExists[_dna] = true;\n\n        // Checks that Avatheeer owner is the same as current user\n        // Learn more: https://solidity.readthedocs.io/en/v0.8.3/control-structures.html#error-handling-assert-require-revert-and-exceptions\n        assert(avatheeerToOwner[id] == address(0));\n\n        // Maps the Avatheeer to the owner\n        avatheeerToOwner[id] = msg.sender;\n        ownerAvatheeerCount[msg.sender] = ownerAvatheeerCount[msg.sender].add(\n            1\n        );\n    }\n\n    // Returns array of Avatheeers found by owner\n    function getAvatheeersByOwner(address _owner)\n        public\n        view\n        returns (\n            // Functions marked as `view` promise not to modify state\n            // Learn more: https://solidity.readthedocs.io/en/v0.8.3/contracts.html#view-functions\n            uint256[] memory\n        )\n    {\n        // Uses the `memory` storage location to store values only for the\n        // lifecycle of this function call.\n        // Learn more: https://solidity.readthedocs.io/en/v0.8.3/introduction-to-smart-contracts.html#storage-memory-and-the-stack\n        uint256[] memory result = new uint256[](ownerAvatheeerCount[_owner]);\n        uint256 counter = 0;\n        for (uint256 i = 0; i < avatheeers.length; i++) {\n            if (avatheeerToOwner[i] == _owner) {\n                result[counter] = i;\n                counter++;\n            }\n        }\n        return result;\n    }\n\n    // Returns count of Avatheeers by address\n    function balanceOf(address _owner)\n        public\n        override\n        view\n        returns (uint256 _balance)\n    {\n        return ownerAvatheeerCount[_owner];\n    }\n\n    // Returns owner of the Avatheeer found by id\n    function ownerOf(uint256 _avatheeerId)\n        public\n        override\n        view\n        returns (address _owner)\n    {\n        address owner = avatheeerToOwner[_avatheeerId];\n        require(owner != address(0), \"Invalid Avatheeer ID.\");\n        return owner;\n    }\n\n    /**\n     * Safely transfers the ownership of a given token ID to another address\n     * If the target address is a contract, it must implement `onERC721Received`,\n     * which is called upon a safe transfer, and return the magic value\n     * `bytes4(keccak256(\"onERC721Received(address,address,uint256,bytes)\"))`;\n     * otherwise, the transfer is reverted.\n     */\n    function safeTransferFrom(\n        address from,\n        address to,\n        uint256 avatheeerId\n    ) public override {\n        // solium-disable-next-line arg-overflow\n        safeTransferFrom(from, to, avatheeerId, \"\");\n    }\n\n    // Transfers Avatheeer and ownership to other address\n    function transferFrom(\n        address _from,\n        address _to,\n        uint256 _avatheeerId\n    ) public override {\n        require(_from != address(0) && _to != address(0), \"Invalid address.\");\n        require(_exists(_avatheeerId), \"Avatheeer does not exist.\");\n        require(_from != _to, \"Cannot transfer to the same address.\");\n        require(\n            _isApprovedOrOwner(msg.sender, _avatheeerId),\n            \"Address is not approved.\"\n        );\n\n        ownerAvatheeerCount[_to] = ownerAvatheeerCount[_to].add(1);\n        ownerAvatheeerCount[_from] = ownerAvatheeerCount[_from].sub(1);\n        avatheeerToOwner[_avatheeerId] = _to;\n\n        // Emits event defined in the imported IERC721 contract\n        emit Transfer(_from, _to, _avatheeerId);\n        _clearApproval(_to, _avatheeerId);\n    }\n\n    // Checks if Avatheeer exists\n    function _exists(uint256 avatheeerId) internal view returns (bool) {\n        address owner = avatheeerToOwner[avatheeerId];\n        return owner != address(0);\n    }\n\n    // Checks if address is owner or is approved to transfer Avatheeer\n    function _isApprovedOrOwner(address spender, uint256 avatheeerId)\n        internal\n        view\n        returns (bool)\n    {\n        address owner = avatheeerToOwner[avatheeerId];\n        // Disable solium check because of\n        // https://github.com/duaraghav8/Solium/issues/175\n        // solium-disable-next-line operator-whitespace\n        return (spender == owner ||\n            getApproved(avatheeerId) == spender ||\n            isApprovedForAll(owner, spender));\n    }\n\n    /**\n     * Private function to clear current approval of a given token ID\n     * Reverts if the given address is not indeed the owner of the token\n     */\n    function _clearApproval(address owner, uint256 _avatheeerId) private {\n        require(\n            avatheeerToOwner[_avatheeerId] == owner,\n            \"Must be avatheeer owner.\"\n        );\n        require(_exists(_avatheeerId), \"Avatheeer does not exist.\");\n        if (avatheeerApprovals[_avatheeerId] != address(0)) {\n            avatheeerApprovals[_avatheeerId] = address(0);\n        }\n    }\n\n    // Approves other address to transfer ownership of Avatheeer\n    function approve(address _to, uint256 _avatheeerId) public override {\n        require(\n            msg.sender == avatheeerToOwner[_avatheeerId],\n            \"Must be the Avatheeer owner.\"\n        );\n        avatheeerApprovals[_avatheeerId] = _to;\n        emit Approval(msg.sender, _to, _avatheeerId);\n    }\n\n    // Returns approved address for specific Avatheeer\n    function getApproved(uint256 _avatheeerId)\n        public\n        override\n        view\n        returns (address operator)\n    {\n        require(_exists(_avatheeerId), \"Avatheeer does not exist.\");\n        return avatheeerApprovals[_avatheeerId];\n    }\n\n    /*\n     * Sets or unsets the approval of a given operator\n     * An operator is allowed to transfer all tokens of the sender on their behalf\n     */\n    function setApprovalForAll(address to, bool approved) public override {\n        require(to != msg.sender, \"Cannot approve own address\");\n        operatorApprovals[msg.sender][to] = approved;\n        emit ApprovalForAll(msg.sender, to, approved);\n    }\n\n    // Tells whether an operator is approved by a given owner\n    function isApprovedForAll(address owner, address operator)\n        public\n        override\n        view\n        returns (bool)\n    {\n        return operatorApprovals[owner][operator];\n    }\n\n    /**\n     * Safely transfers the ownership of a given token ID to another address\n     * If the target address is a contract, it must implement `onERC721Received`,\n     * which is called upon a safe transfer, and return the magic value\n     * `bytes4(keccak256(\"onERC721Received(address,address,uint256,bytes)\"))`;\n     * otherwise, the transfer is reverted.\n     */\n    function safeTransferFrom(\n        address from,\n        address to,\n        uint256 avatheeerId,\n        bytes memory _data\n    ) public override {\n        transferFrom(from, to, avatheeerId);\n        require(\n            _checkOnERC721Received(from, to, avatheeerId, _data),\n            \"Must implmement onERC721Received.\"\n        );\n    }\n\n    /**\n     * Internal function to invoke `onERC721Received` on a target address\n     * The call is not executed if the target address is not a contract\n     */\n    function _checkOnERC721Received(\n        address from,\n        address to,\n        uint256 avatheeerId,\n        bytes memory _data\n    ) internal returns (bool) {\n        if (!to.isContract()) {\n            return true;\n        }\n\n        bytes4 retval = IERC721Receiver(to).onERC721Received(\n            msg.sender,\n            from,\n            avatheeerId,\n            _data\n        );\n        return (retval == _ERC721_RECEIVED);\n    }\n\n    // Burns a Avatheeer - destroys Token completely\n    // The `external` function modifier means this function is\n    // part of the contract interface and other contracts can call it\n    function burn(uint256 _avatheeerId) external {\n        require(msg.sender != address(0), \"Invalid address.\");\n        require(_exists(_avatheeerId), \"Avatheeer does not exist.\");\n        require(\n            _isApprovedOrOwner(msg.sender, _avatheeerId),\n            \"Address is not approved.\"\n        );\n\n        ownerAvatheeerCount[msg.sender] = ownerAvatheeerCount[msg.sender].sub(\n            1\n        );\n        avatheeerToOwner[_avatheeerId] = address(0);\n    }\n\n    // Takes ownership of Avatheeer - only for approved users\n    function takeOwnership(uint256 _avatheeerId) public {\n        require(\n            _isApprovedOrOwner(msg.sender, _avatheeerId),\n            \"Address is not approved.\"\n        );\n        address owner = ownerOf(_avatheeerId);\n        transferFrom(owner, msg.sender, _avatheeerId);\n    }\n}\n",
  "sourcePath": "/Users/ernestognw/Documents/blockdemy/blockchain-developer-professional/marzo/avatheeers/contracts/Avatheeers.sol",
  "compiler": {
    "name": "solc",
    "version": "0.8.3+commit.8d00100c.Emscripten.clang"
  },
  "schemaVersion": "3.3.4",
  "updatedAt": "2021-04-03T02:38:35.923Z",
  "networkType": "ethereum",
  "devdoc": {
    "kind": "dev",
    "methods": {
      "isApprovedForAll(address,address)": {
        "details": "Returns if the `operator` is allowed to manage all of the assets of `owner`. See {setApprovalForAll}"
      },
      "supportsInterface(bytes4)": {
        "details": "See {IERC165-supportsInterface}."
      }
    },
    "version": 1
  },
  "userdoc": {
    "kind": "user",
    "methods": {
      "safeTransferFrom(address,address,uint256)": {
        "notice": "Safely transfers the ownership of a given token ID to another address If the target address is a contract, it must implement `onERC721Received`, which is called upon a safe transfer, and return the magic value `bytes4(keccak256(\"onERC721Received(address,address,uint256,bytes)\"))`; otherwise, the transfer is reverted."
      },
      "safeTransferFrom(address,address,uint256,bytes)": {
        "notice": "Safely transfers the ownership of a given token ID to another address If the target address is a contract, it must implement `onERC721Received`, which is called upon a safe transfer, and return the magic value `bytes4(keccak256(\"onERC721Received(address,address,uint256,bytes)\"))`; otherwise, the transfer is reverted."
      }
    },
    "version": 1
  }
}